:1000000096C10000B1C10000AFC100000C947B128A
:10001000ABC10000A9C10000A7C100000C9473127D
:10002000A3C10000A1C100009FC100009DC100004C
:100030009BC1000099C1000097C1000095C100005C
:1000400093C1000091C100008FC100008DC100006C
:100050000C942B1289C1000087C1000085C10000EB
:1000600083C1000081C100007FC100007DC100008C
:100070007BC1000079C1000077C100003434343501
:100080002E302E00130201000000000000000100CD
:10009000000000000000000110010000010000004D
:1000A000000000000000000000100100000000003F
:1000B0000000000000000000000000009100960118
:1000C000A502AF03B904C305CD06DC07FF07000195
:1000D000050414101115FF0F8D0A800C020ED609AD
:1000E000DA0A120BEB0A910A1B0A9709160A6C0925
:1000F000C708D0082B080E08730744070A07C9066B
:1001000045060606C505840543050405C6048A049C
:1001100051041A04E503B203820355032A030003C2
:10012000DA02B50292027102520234021802F70199
:10013000E501CE01B701A2018E0180016E016101CE
:10014000540147013F0133012A0124011C01180118
:1001500011010D010A010701040102010001000162
:10016000FF00FF00FF00FF00FF00FF00FF00FF0097
:10017000FF00FF00FF00FF00FF00FF00FF00FF0087
:10018000FF00FF00FF00FF00FF00FF00FF00FF0077
:10019000FF00FF00FF00FF00FF00FF00FF00FF0067
:1001A000FF00FF00FF00FF00FF00FF00FF00FF0057
:1001B000FF00FF00FF00FF00FF00FF00FF00FF0047
:1001C000FF00FF00FF00FF00FF00FF00FF00FF0037
:1001D000FF00FF00FF00FF00FF00FF00FF00FF0027
:1001E000FF00FF00FF00FF00FF00FF00FF00FF0017
:1001F000FF00FF00FF00FF00FF00FF00FF00FF0007
:10020000FF000000000000000000000000000000EF
:1002100000000000000000000000000000000000DE
:1002200000000000000000000000000000000000CE
:1002300000000000000000000000000000000000BE
:1002400000000000000000000000000000010203A8
:10025000040607080A0B0D0E1011131516181A1CA8
:100260001E20222527292C2E303336383B3E414490
:10027000474A4D5154575B5E62666A6E72767A7E6B
:1002800082878B9094999EA3A8ADB2B8BDC3C8CE07
:10029000D4DAE0E6ECF2F8FF0101020303040506FC
:1002A0000708090B0C0D0F10121315171A1B1C1E33
:1002B00020222426282A2C2E30323436383A3C3E4E
:1002C00040424446474A4C4E505255575A5D60642E
:1002D000676B70747A7F858C939AA3ABB6C0CBD7CB
:1002E000E4F1FFFFFFFFFFFFFFFFFFFFFFFFFFFF47
:1002F000FFFFFFFFFFFFFFFFFFFFFFFFFFFFFFFF0E
:10030000FFFFFFFFFFFFFFFFFFFFFFFFFFFFFFFFFD
:10031000FFFFFFFFFFFFFFFFFFFFFFFFFFFFFFFFED
:10032000FFFFFFFFFFFFFFFFFFFFFFFFFF001124A5
:100330001FBECFEFCDBFDFE3DEBF18E3A0E0B8E321
:10034000ECE6FCE202C005900D92AC33B107D9F7A0
:1003500028E3ACE3B8E301C01D92A23DB207E1F788
:100360000E9482120C941D164BCE81E0089590E0FD
:10037000FC01E856FD4FE4914E2F50E0FC01EE5F8A
:10038000FD4FE4912E2F30E0FC01EE0FFF1FEA52EB
:10039000FF4F8591949140933A0A50933B0A2093E2
:1003A000380A3093390A8093360A9093370A80913D
:1003B0007238811104C01092200A1092210A089507
:1003C00090E0FC01E856FD4FE4912E2F30E0FC0157
:1003D000EE5FFD4FE491F0E080913A0A90913B0A84
:1003E000892B19F42F3F310551F080913A0A9091F1
:1003F0003B0A8F3F910541F52115310529F52093E1
:100400003A0A30933B0A8091380A9091390A8E1744
:100410009F07C0F58091380A9091390A0196809320
:10042000380A9093390A80913A0A90913B0A8217D0
:10043000930741F42091380A3091390A81E02E1750
:100440003F0709F080E0089580913A0A90913B0AB5
:100450008217930750F480913A0A90913B0A0196D3
:1004600080933A0A90933B0ACECF80913A0A9091BA
:100470003B0A2817390738F680913A0A90913B0ACF
:100480000197EECF8091380A9091390AE817F90761
:1004900050F68091380A9091390A0197C0CFF894AC
:1004A00098ED94BF809361008091630080FDFCCF44
:1004B00078940895E0E0F6E0828581608287808507
:1004C000816080870895982F937041F09130C1F03A
:1004D00094E0909341049093450405C094E0909378
:1004E000410490934604982F96959695937079F0D1
:1004F0009130E9F098E090934104909345040CC04A
:1005000094E09093420498E090935204ECCF98E0EA
:1005100090934104909346048295837071F08130EA
:1005200091F082E08093410480934504089598E01F
:100530009093420490935304EFCF82E08093410460
:1005400080934604089582E08093420488E080937B
:1005500051040895811102C081E0B5CF82E0FDCF42
:10056000811102C085E0AFCF8AE0FDCF811102C0CA
:1005700084E0A9CF88E0FDCF811102C084E1A3CF40
:1005800088E2FDCF811102C080E19DCF80E2FDCFE6
:10059000811102C081E197CF82E2FDCF811102C0BB
:1005A00085E191CF8AE2FDCFEFE9F8E330E020E08A
:1005B000908191110BC0F901EE0FFF1FE20FF31FA5
:1005C000E156F74C80836183728306C02F5F3F4FF3
:1005D00033962031310561F70895BC018091D138FF
:1005E000E3CF1092D1381092CF381092D03881E0FA
:1005F00080935C3808950F931F93CF93C82F0CEC12
:1006000018E0C15020F4CF911F910F91089585E01B
:1006100046DFC8010197F1F781E041DFF2CFE0E06A
:10062000F6E083E88083838180628383A0EAB0E080
:100630008C918F7880648C938DE1868382E08183B6
:1006400083E5828310929B3810929C3833CF82B11D
:1006500085FB882780F991E0892780937538089574
:10066000E0E5F0E08081897F808380818160808304
:10067000889580818E7F80830895E0910638F0917F
:1006800007383196FB70F460E0930638F093073832
:10069000809170388B5A80937038E49180917038D3
:1006A0008E0F0895CF93DF93CDB7DEB72697CDBFDA
:1006B000DEBF20910D3840918D3850918E384153D6
:1006C000594009F422E0843041F4609319382696A9
:1006D000CDBFDEBFDF91CF9108956623C1F3823095
:1006E00019F497E9961B692F96E0EEE3FCEADE0128
:1006F000119601900D929A95E1F78150990B880F10
:10070000991FA1E0B0E0AC0FBD1F8A0F9B1FDC0159
:10071000ED91FC91E20FF11D6083D9CFCF92DF9272
:10072000EF92FF920F931F93CF93DF939C01509111
:100730000D3890911838E2E0911101C0E52FF0E0FA
:10074000E35FF74C428140930938858180930838F4
:10075000E92FF0E0E35FF74CC185642F70E055238B
:1007600081F0C13071F4860F972F911D9595879573
:10077000DF91CF911F910F91FF90EF90DF90CF907D
:100780000895261737079CF1821713068CF3511131
:1007900002C0822FEDCF841B6C2F6150770B8B0131
:1007A000E82EF12CC7010E94B41560936B38669552
:1007B000E62FF0E0842FD12CC12CD0E0DC17C1F261
:1007C000C601B8010E94A015842F860FA82FB0E0A3
:1007D000B9016A1B7B0B77FF03C0BD01621B730B62
:1007E000CE0CDF1CE617F7071CF6DF5FE7CF842F80
:1007F000BFCFEDE0F8E3868580930A388389808B4C
:1008000080937338089580916738882351F09091D0
:10081000723890936A3880936638109264381092D8
:10082000653808953091913820E0822F90E0FC01E6
:10083000E654FF4FE4913E1748F4FC01E754FF4FA4
:10084000E491F0E0E253FF4F849108952E5FEDCFE5
:100850000F931F93CF93DF93C82FCB012091913833
:100860002150203930F480E0DF91CF911F910F911A
:100870002ACEEC2FEF7020916838211139C0C29533
:10088000CF702091353848E0249F900111246217E1
:10089000730778F540916D384217130654F54423D9
:1008A00041F1C23091F030910B38C1E020913138E4
:1008B000321708F4C0E021E040913238431708F0C5
:1008C00020E001C0CC0F2A95EAF72091743822234A
:1008D00009F448C0A7DF482FC33008F06AC0CC2312
:1008E00029F0C13009F468C0C42FCC0F8C2FBCCFC5
:1008F000C2E0E73010F4F0E016C0E730C1F4009138
:10090000413810E00F5F1F4FB8DE65E00E9494157C
:10091000F801E90FF11DCF0166E070E00E94B41507
:1009200080934138FC01E153FF4F4491D5CFE8302B
:1009300061F620917438222399F02FE030E0822371
:100940009323892B51F48091413890E0019666E021
:1009500070E00E94B41580934138E0914138CBCFCC
:1009600023E0ECCF9695879563E070E00E94A01598
:10097000FC01EE0FFF1FD7CFE491EF5F9E0F8F5F5B
:10098000292F30E0F901EC57FF4F8C13F5CF64911C
:100990008091403890E0019670E00E94B4158093F9
:1009A0004038E901C80FD91FCB57DF4FFE01C49172
:1009B00096CF83E090E0E4CFC42F98CF81E00895F4
:1009C000843091F040F4823099F0833049F0611125
:1009D00060932E3808958530D1F7609336380895A6
:1009E00061506093313808956150609332380895B2
:1009F000609335380895662369F0813099F48091C9
:100A0000303890918F38891B680F6093303882E0BE
:100A100080930C3880912F38873418F086E48093C7
:100A20002F380895635E60932F38F4CF6093373882
:100A30000895E82FF0E0E35FF74C62A70895409136
:100A40001E3850911F382FEF280F81E090E002C030
:100A5000880F991F2A95E2F7662339F0842B952B8E
:100A600080931E3890931F38089580958423952392
:100A7000F7CFCF93DF938DE098E380936E38909318
:100A80006F3882E0B8DDF894D0E0C0E0E0916E38D5
:100A9000F0916F38EC0FFD1F60812196CE010E940E
:100AA0000016CE32D10591F765EA90E080E00E9411
:100AB00000167894DF91CF910895CF93DF9300D003
:100AC00000D0CDB7DEB710929D389091100680917E
:100AD0007038890F8093703880919238882309F498
:100AE0007AC01092923890919B3880917438882304
:100AF00049F0809100068E7F8093000610929E3808
:100B000010929B38911175C080910C3820919738C4
:100B10003091983881111CC080917438209193389D
:100B2000309194388823C1F080919738909198380B
:100B300043E0969587954A95E1F7820F931F53E01E
:100B4000369527955A95E1F7AC01421B530B9A0154
:100B5000209393383093943850912E385750550F36
:100B60005983B4E036952795BA95E1F750E040E017
:100B700060E070EB84E090E00E94C7158981280F47
:100B80002093913880915A38882359F1815080936D
:100B90005A3880917438811115C08091A0008F78E7
:100BA00080618093A0008EE18093060682E08093AE
:100BB000010683E48093020681E080939B381092C3
:100BC0009C3878DC80910C38882329F080910C388F
:100BD000815080930C382496CDBFDEBFDF91CF913A
:100BE00008952139B0F670E060E084E0DDDC85E056
:100BF000CECF913039F780910C38882341F0809125
:100C0000993890919A388093953890939638A0911E
:100C1000201180912111209195383091963890E4DF
:100C20008902201931091124B0E00E94E915698375
:100C30007A838B839C83705E8F4F9F4F672F782FB3
:100C4000892F9927409130389B01F6E036952795FA
:100C5000FA95E1F7042E000C550BFA01E351F1402F
:100C60002E0F3F1F20938F3830939038A5E0769554
:100C70006795AA95E1F780910C3881113DC080916C
:100C80004938E82FF0E0EE0FFF1FE65BF74C2081BC
:100C90003181DB01A21BB30B9D01608371838F5FE8
:100CA00087708093493880912F3890E08D5E9E4FF9
:100CB000841B950B880F991F681B790BCD01880F3A
:100CC000991F880F991F680F791F83E01616170662
:100CD000A4F5615071098150C9F7161617060CF07A
:100CE00045C037FD62C080914838181664F5861BF0
:100CF0008093483894DC66CF60934A3870934B38C1
:100D000060934C3870934D3860934E3870934F38E1
:100D100060935038709351386093523870935338C1
:100D200060935438709355386093563870935738A1
:100D30006093583870935938A2CF6115710559F2F4
:100D40006F5F7F4FC8CF660F771F653071055CF00E
:100D5000635071097595679588E1861B80934838C3
:100D600085E022DCC7CF61E070E0F6CF6C3FBFEFDB
:100D70007B07DCF437FF19C08091483887FF02C039
:100D80008450B5CF84EE861B80934838809191388B
:100D9000833908F4AFCF8CEF9FEF9C01261B370BF4
:100DA000B9017595679586E0DCCF809191388239DD
:100DB00008F4A0CF70E060E087E0D3CF813019F471
:100DC00010921B380895823019F460931C380895EE
:100DD000833019F460931A380895843019F46093BD
:100DE0000E380895853011F4609322380895982FB5
:100DF0008091743881112DC0911101C064CBE091B4
:100E0000733885E0E89FF0011124EC5BF3458481A1
:100E100081FD1FC08091363881FF17C081E020918D
:100E20003138291708F080E021E030913238391745
:100E300008F020E001C0880F2A95EAF7882329F0FE
:100E4000813029F0EFDC880FD9CF80E0D7CFEADC02
:100E5000D5CF0895CF93C82FCADFC1111EC01092FD
:100E60003A0A10923B0A1092380A1092390A1092EC
:100E7000200A1092210A809172388C1380930B38CB
:100E8000C0937238C093713885E0C53020F083E09C
:100E9000C43108F081E0CF9102CBE091733885E056
:100EA000E89FF0011124EC5BF3450190F081E02D07
:100EB0008FEF8C0F0995DFCFCF93C091723889E106
:100EC0008C0F873908F080E0C5DF82E094DB8C2F3F
:100ED000CF91C0CFCF93C091723880E0BBDF83E069
:100EE0008ADB8C2FCF91B6CF80936C38909172387B
:100EF000282F291B981710F0292F281B30915E38B6
:100F0000311106C030912238332369F0223058F075
:100F100080935F3884E080935D3881E080935E3811
:100F200090936038089596CFCF93DF93C82F809128
:100F300073388C1751F0D091723880E08BDFC093FA
:100F400073388D2FDF91CF9185CFDF91CF910895A9
:100F50004091733860911E3870911F38842F98E04B
:100F6000282F30E02F5F3F4F27703327822FFB0160
:100F700002C0F695E7952A95E2F7E0FD02C0915090
:100F800079F7481741F0D0DF8091733880931D388E
:100F900070DD80E0089581E00895FF920F931F9324
:100FA000CF93DF938C01D62FC72FF42E80918D38ED
:100FB00090918E38892B31F0E0918D38F0918E38F8
:100FC00089E0099500938D3810938E38012B41F0FC
:100FD000E0918D38F0918E386D2F7C2F8F2D0995F3
:100FE00081E080935C38DF91CF911F910F91FF904A
:100FF000089520917C38283080F4E22FF0E0EE0F45
:10100000FF1FE358F74C808391832F5F20937C3838
:1010100048E0C3DF80917C3808958FEF0895CF9327
:10102000833C11F4CF9194CFC0911838C1110AC0FC
:10103000893B41F470E060E089E499E0DADF8C2FCD
:10104000CF910895C1E0FBCF282FCB01283039F490
:101050001092673810926438109265380895213BD9
:1010600059F48091673881508330B8F583E08093DC
:10107000673880936638EECF253BA1F46EE370E0CD
:101080000E94A015892B49F5809167388A3F28F581
:101090008B5F809367388093663810926438109223
:1010A00065380ACF2130C9F4809164389091653851
:1010B000019688382EE0920728F480936438909344
:1010C00065380895109264381092653880916738B9
:1010D000882319F08150809367380895EF92FF922A
:1010E0001F93CF93DF9310919F38111106C0DF91AA
:1010F000CF911F91FF90EF900895E090A038F0906D
:10110000A138C0917C38C1500C2E000CDD0BC7FDFE
:101110000EC0FE01EE0FFF1FE358F74C0190F08167
:10112000E02DB701812F099521978111F0CFEFE9CB
:10113000F8E38381808384819581818392833396D0
:1011400088E3EC3CF807A9F71092CC381092CD3820
:101150001092CE38C8CF80917C38882319F0815006
:1011600080937C38E0917C3890E080E0EE2341F081
:10117000E150FF0BEE0FFF1FE358F74C8081918188
:101180004AE070E060E009CF1F93CF93DF93162F02
:10119000D72FC42FF9018830B9F480917338809328
:1011A00044381092433880E055DE809175388111C3
:1011B0002FC0809143388F5F8093433870E060E0A8
:1011C00083E599E016DF24C0982F907F903B49F586
:1011D00080914338481718F18150883040F490913D
:1011E0006938992321F09091733889139DDE812FFE
:1011F0009D2F6DE570E00E94A015069771F4809117
:1012000043388F5F80934338C81710F088E322DE9D
:1012100080E0DF91CF911F91089582E1F8CF80E0C7
:10122000F6CF903E51F480914338882371F04817EF
:1012300060F08091443878DEC1CF8A3041F460910B
:101240005B3880914338099514DC85DFE1CF893024
:10125000F9F68091443868DEDBCF22E533E043E0E5
:1012600093CF22E533E044E08FCF2EED36E045E02A
:101270008BCF20EE34E045E087CF2BEF34E042E027
:1012800083CF26E135E041E07FCF29E135E043E03F
:101290007BCF91E0909369382FE135E048E074DF2F
:1012A000109269380895883039F410925B381092A2
:1012B000423880E0CFDD0CC0813001F5909142389A
:1012C000911108C06032710518F08093423889D9B5
:1012D00080E00895913081F46B3B710520F082E04D
:1012E00080934238E6CF6115710591F3862F880F00
:1012F000880F88708E5EDECF2EDFEACF813811F046
:10130000813E31F791E090934238813E41F48091E3
:101310005B38865F80935B3864D98BE4CBCF809158
:101320005B388F5FF7CF0F931F93CF93DF93D82F47
:10133000C92F8B0110DFB8018D2F9C2FDF91CF912A
:101340001F910F9156CE813C39F470E060E083E745
:101350009CE0E9DF80E00895823C29F470E060E0E1
:1013600088E39CE0F6CF873B31F470E060E08DE3EA
:1013700099E03FDEEFCF81E00895813C39F470E0E1
:1013800060E083E79CE0CFDF80E00895823C29F4B1
:1013900070E060E08CE09CE0F6CF81E0089584305E
:1013A00011F580918D3890918E382FE08E3B920709
:1013B00031F469E170E085EF99E0B5DF0DC0855F3C
:1013C000994061F490917238923040F0892F86955F
:1013D00096959695890F88DD80E0089570E060E02D
:1013E00083E79CE0EACF81E00895BF92CF92DF923D
:1013F000EF92FF920F931F93CF93DF93C82F8B0130
:1014000080911D3880937338C0900938E090083877
:1014100080910D38B0906B38811102C0BB24B39419
:10142000D0900E38809118388111D0901938DD2075
:1014300009F43FC031E0D31621F080910A388E15AF
:10144000C0F1F6E9FF2ED0916738B8018C2FFCDD92
:1014500020916738222309F4D6C1D11104C08091AC
:10146000723880936A388C2F8D7F883021F51092E6
:101470006338CA3019F400910A3810E0C01611061A
:1014800030F4E016110619F010F000930A38C80184
:1014900045D92ADD81E080930538D0E08D2FDF919A
:1014A000CF911F910F91FF90EF90DF90CF90BF9061
:1014B0000895FE2CC8CFC13C09F4A8C1C23C59F420
:1014C000809172388F1520F48F2D0EDD9CD9E5CFD9
:1014D00080910A38FACFC43C39F480E0BBDC70E07C
:1014E00060E08CEA9DE096C18FE48C0F823008F0BA
:1014F00059C080910D38882329F1C80168E170E056
:101500000E94A015892B49F6D0915E38D111C5CF24
:10151000909172380115110501F5C23BC1F48FEFAE
:1015200080930538209105384B2D2403C0011124E8
:1015300020917238820F911DF1D880930A38D4DC43
:1015400062D9ACCF6091153870E0C801D9CF9E1533
:1015500030F7C91638F381E0E3CF80911538682F52
:1015600070E046E351E0849F9001859F300D112487
:101570002017310710F49E1590F64CE652E0649F58
:101580009001659F300D749F300D11242017310795
:1015900048F6C91638F290DC70E060E08CEA9DE015
:1015A000C2DEC0CF8FE18C0F823020F480910538ED
:1015B000819571CFC13009F084C00932110511F451
:1015C000C0930538222379F1C0916A38C29F9001F7
:1015D0001124E0916638F0E0C901BF010E94B41502
:1015E000462FC9018C1B9109BF010E94B415242FFD
:1015F000261B80916438909165386EE370E00E94FC
:10160000A015269FC001279F900D11246CE370E068
:101610000E94A015842F861B461301C081E0809391
:10162000713880936C38C0917138209172384C2F8A
:10163000421B550BCA0160914538709146386F5F67
:101640007F4F6093453870934638009709F425CF53
:1016500040E052E097FF06C040E450E0293710F424
:1016600040E051E05695479597FD019695958795F1
:101670000097C1F74617570708F00FCFC217E8F4D5
:10168000CFEFC20FE091733855E0E59FF0011124D0
:10169000EC5BF3450280F381E02D8FEF8C0F099511
:1016A000882331F0D09171388C2FD4DBD0937138EE
:1016B0001092453810924638F0CE2C1718F7C1E03A
:1016C000E0CFC530A9F4809172388C3408F4E5CEAF
:1016D00090E0801B910B8739910514F086E990E02A
:1016E0008B34910514F48BE490E080937138D5CE5F
:1016F000C63079F49091723880916C38981708F060
:10170000CCCE090F111D90E08017910774F3C8012A
:10171000E7CFC73069F4909171388091723889179A
:1017200010F48F5FE2CF981708F0B7CE8150DDCF6D
:10173000C33C99F0C63C49F581E090910D38911178
:1017400080E080930D3895D9C5DB8091723890E0A8
:101750000E948E0380930A38B8CE60911E38709133
:101760001F3890E080E020E0AB01082E02C05695C3
:1017700047950A94E2F74170240F0196883091054D
:1017800099F72230C8F2D1E089CED0911838D11122
:10179000FACFC33B51F4012B09F07FCEDD2011F0CD
:1017A00086E9F82E8F2DA0DB79CEC33E19F4809107
:1017B0000A38F9CFC53C61F48091723880930A38B9
:1017C00080E048DB70E060E082E691E1ACDD66CE6F
:1017D00070E060E08DE299E0C73B99F0CA3C59F4B3
:1017E0008091723880931B388091733880932038B1
:1017F00040D962DB53CECA3B31F670E060E085E34E
:1018000099E0F7DB4BCEDD2309F42DCE70E060E0EC
:1018100083E79CE088DD41CECF93C0911838C11199
:1018200025C0813C41F470E060E083E79CE07BDD13
:101830008C2FCF910895823C29F470E060E083EA18
:1018400099E0F5CF833C51F48091213890E00196E6
:1018500087709927809321380CD9EACF873B31F4E0
:1018600070E060E089E399E0C4DBE2CFC1E0E0CF63
:10187000282FCB01213C39F470E060E083E79CE045
:1018800052DD80E00895223C29F470E060E08DEBA9
:1018900099E0F6CF213B41F46EE370E00E94A01581
:1018A000892B79F709DBEDCF213E49F46EE370E037
:1018B0000E94A0156F5F60932D38DBD8E2CF81E0E6
:1018C000089590912238992369F080935F3888E0D9
:1018D00080935D3881E080935E3880917238809388
:1018E00060380895B7CACF93DF93EB018830C1F415
:1018F00080E0E7DF80915E38C82B10926D388091D0
:101900001D388093733810926738CD2B29F0C0E0D2
:101910008C2FDF91CF91089581E080937438F7CFB9
:10192000813051F46931710590F3C0915E38C11175
:10193000EECF80937438ECCF833091F580916D3881
:101940008F3F19F08F5F80936D3880911B3888230B
:1019500071F040911C3822EC31E0429FC001439F5E
:10196000900D1124C817D90710F00E94F903BE0189
:10197000809133380E94280480913738882339F2C7
:1019800042EC51E0849F9001859F300D11242C176B
:101990003D0708F0BCCF70E060E08CEA9DE016C027
:1019A000813BB1F481E090E00E948E038ADF809158
:1019B0001A388111ACCF80910D38811103C068971E
:1019C00008F4A5CF61E070E085EF99E0ACDC9FCF33
:1019D000813EC1F3813839F480910A3890E00E9449
:1019E0008E036FDF94CF60910A3870E0813C61F321
:1019F000823B81F410926D3880910E3890911838A6
:101A0000911180911938811103C086E990E0E7CFE8
:101A100086E9E7CF823E11F480E0E3CF66E970E02B
:101A2000823C91F2833919F410925E38F5CF833CF1
:101A300029F470E060E08CE09CE0C8CF843C11F4B5
:101A40003BDAA9CF8D3B49F4F89488ED91E084BF4F
:101A5000909300017894A895FFCF8F3C29F470E013
:101A600060E08EED94E0B2CF8A3B99F4CD2B09F083
:101A70004CC0C0911838CC2331F01EDA10921838BF
:101A80000E94390544CF70E060E081E399E0B1DA6B
:101A90003FCF873CC9F420913338822F82958F70D5
:101AA0008F5F66E00E94941530E1939FC00111247E
:101AB0002F70822B8093333870E060E00E942804FE
:101AC0000E943905F9D923CF873BD1F481E0809377
:101AD0006838CE018F739927892B61F420913338B0
:101AE000822F8F708F5F207F6BE00E949415922B66
:101AF00090933338BE01809133380E94280407CF79
:101B0000873E19F410926838BBCFC0911838C111C4
:101B100021C0833B31F470E060E08EEB9FE003DC9A
:101B2000F7CE8A3C39F4C8D981E0809318380E94F6
:101B30003905EECE853C31F4BFD970E060E082E635
:101B400091E1EDCF863C31F4B7D970E060E08AEAEC
:101B500091E1E5CFC1E0DCCE0F931F93CF93DF93EC
:101B6000C82F8B018079803911F58C2F8F708330CD
:101B700098F490910F38813031F480911038981793
:101B800050F4892F08C080911B38811104C08091C6
:101B900010388917B0F395DEC33C09F051C08CD9D9
:101BA00070E060E083E79CE0BEDBD0E01AC08038E4
:101BB00011F480E0F0CFC830D1F410926D3870E0AD
:101BC00060E0809134380E942804D0911838D111F7
:101BD00092C0CA3B09F08FC070E060E081E499E0F8
:101BE00008DA8D2FDF91CF911F910F910895C130A9
:101BF00059F469317105C8F2C0937438B801809105
:101C000034380E942804D1CFC33031F680916D382A
:101C10008F3F19F08F5F80936D3880911B38882338
:101C200069F340911C3822EC31E0429FC001439F90
:101C3000900D11240817190708F30E94F903DECF4D
:101C400060910A3870E0C43C39F0C43B41F442D999
:101C50001092D13861E070E085EF99E0A5CFC53CE6
:101C600019F466E970E0F8CFC33B61F4C8016EE394
:101C700070E066D7892B09F0A8CFDF91CF911F9133
:101C80000F9166C9C73CC1F420913438822F8295E8
:101C90008F708F5F66E048D730E1939FC0011124B9
:101CA0002F70822B8093343870E060E00E9428040B
:101CB0000E94390501D979CFC73BA9F481E080930F
:101CC0006838C8018F739927892B09F097CF209125
:101CD0003438822F8F708F5F207F6BE025D7922B57
:101CE000909334388BCFC73E09F06FCF109268388D
:101CF0000E9439055ACFD1E074CF0F931F93CF9331
:101D0000109277388091CF389091D0389C012F5F16
:101D10003F4F88279078822B932B8093CF389093D6
:101D2000D038C09175380E942703C817B9F01092B7
:101D30007438809375389091D1388823E9F1892FD0
:101D400080699F709F30B1F58093D13890E080E03A
:101D50000E94ED021092CF381092D0380091CF3807
:101D60001091D038809174388823A1F1B80183E0B4
:101D70000E94D402B3D90134110520F00F7011274D
:101D8000012BA1F41092473881E080939E380E9485
:101D90000F03C0914738C11105C00E945A0281E06B
:101DA00080939238CF5FCF71C0934738CF911F9106
:101DB0000F9108958F5FC8CF892F8F7E95FD08C042
:101DC00080688093D1388091CF389091D038C0CF3F
:101DD000806CF7CFC091D1388C2F807F803B49F445
:101DE00070E060E081E00E94D402C8010E94ED0230
:101DF000D0CFB80181E00E94D402C4FF0FC0C5FD5E
:101E0000F4CF0831110528F21092CF381092D03853
:101E1000C062C093D13890E080E0E8CFCC2309F4D1
:101E2000B8CFC5FF03C00E94F102B3CF0231110544
:101E300008F4AFCFC064C093D13890E080E00E9436
:101E4000ED02F1CF80919D3881110E945D05809156
:101E50007738811152CF0895EF92FF920F931F931D
:101E6000CF93DF93EC0102E418E080E1E82E82E0FA
:101E7000F82E209739F4DF91CF911F910F91FF90A9
:101E8000EF90089580915C388111F5CF8091723880
:101E9000853068F485E00E944F02C7010197F1F791
:101EA00081E00E944F02CEDF19D92197E2CF81E075
:101EB0000E944F02C801F2CF0F931F93CF93DF937D
:101EC000C82F06EA811102C00AE0C1E0D091733840
:101ED00010E08091213828D889E10E942A07D09308
:101EE0007338C801B9DF809121381ED880E00E9484
:101EF0002A07D09373388AEF90E0AEDFC15049F7DC
:101F00008D2F12D88AE992E0DF91CF911F910F9126
:101F1000A3CFCF93DF93282F64E606D6382FC92F9F
:101F2000892F6AE001D6D92F243650F0832FC4DFE1
:101F30008C2F6AE0F9D5C0DF8D2FDF91CF91BCCF18
:101F4000CA30B0F7F9CFCF93DF93D82FC3E0809199
:101F50000A380E942A0788EC90E07EDFDD2319F022
:101F600080E991E079DF80E00E942A0788EC90E028
:101F700073DFC15061F7DF91CF910895FF920F9306
:101F80001F93CF93DF93D82F8B01C091613881E0ED
:101F900080936338C43079F4F09067388D2F54D82B
:101FA000FF20A1F080916738811110C070E060E0DF
:101FB00083E79CE0B8D9D83071F0D13C09F013C167
:101FC00070E060E083E79CE0AED90CC0D83061F4EB
:101FD00081E080930338809123388093613881E0D9
:101FE0008093043880E064C1D23C69F41092673871
:101FF0008C2F90E0019666E070E0B6D58093233890
:102000008093613802C1D13BC1F480910238012B29
:1020100041F49FEF8E3618F4823018F491E09093DB
:10202000033890910338890F21F481E080930238BE
:10203000D9CF8F36D8F38EE6F9CFD13E59F48091BF
:10204000033881958093033880910438819580937B
:102050000438DBC0D23BE1F481E080930338809107
:102060000238823018F081508093023881E08093EA
:102070000438C23008F00FC100FDB4CFEC2FF0E0FF
:10208000E35FF74C858D8F3F09F4ACCF8F5FDAC0EB
:10209000D13009F013C10932110511F4D09303387E
:1020A00090913F38892F880F97FD809527E0829F78
:1020B000C001112430913E38232F220F37FD209587
:1020C00080910138289F90011124232F290F90918E
:1020D0003D38892F880F97FD809590910038899F12
:1020E000C0011124290F80910238280F3327331F94
:1020F000809167388130B9F4809164389091653867
:1021000045E0969587954A95E1F764E770E0AB0165
:10211000481B590B429FC001439F900D529F900D49
:1021200011240ED59B01822F0E942A0700FD09C0B1
:102130000E943D03982F917080913F38890F8093C2
:102140003F3880913E3890913C38890F80933E38DB
:102150000E943D0365E2E8D480913D38890F809369
:102160003D380E943D038F7331F40E943D036DE0C2
:10217000DBD490933C38C0910138CC2339F00E94D5
:102180003D038F7319F4C150C09301380E943D0381
:10219000811108C00E943D036BE0C6D490930138C2
:1021A00010923E38C0910038C33038F00E943D0391
:1021B0008F7119F4C150C09300380E943D038F778E
:1021C00031F40E943D0366E0AFD4909300380932A9
:1021D000110519F481E08093043880917038080F5C
:1021E00000937038FFCED23C09F402CFD33C81F487
:1021F000809173388F5F87700E949407EC2FF0E016
:10220000E35FF74C80917338878B0E943905EACEE3
:10221000D43C21F48C2F90E00596EDCED13B51F5C6
:10222000C23090F400FDDECEEC2FF0E0E35FF74C1F
:10223000858D90910438891B8F3F08F08EEF883090
:1022400008F488E0858FCECEC53009F0CBCE8091E2
:102250002C3890910438890F823040F482E08093CA
:102260002C3880912C380E942A07BCCE8937B8F3CD
:1022700088E7F5CFD13E09F4E7CED23B09F4F6CE9C
:10228000D23E19F2D53C81F470E060E082E691E143
:102290004AD880E0E8CFC53009F0A4CE80912C3830
:1022A0008330F8F28150DBCF81E0D13009F48FCF59
:1022B000DF91CF911F910F91FF900895D13C09F0CC
:1022C00095CF7ECE0F931F93CF93DF93D82F8B01A3
:1022D000883031F480916338882311F088E04EDE35
:1022E0008D2F8079803999F481E080936238C09194
:1022F0006338CC2311F0C0E004C080910A380E94FA
:102300002A078C2FDF91CF911F910F91089580386C
:1023100031F41092623880E00E942A07ECCFC1E0CD
:10232000D13079F7C0916238CC2359F0809163386D
:10233000882309F3B80181E0DF91CF911F910F91BC
:102340001DCE80E00E94630207331140A0F2D093BB
:102350007438D7CFFF920F931F93CF93DF93C82F7B
:102360008B01F0900A388079803909F03DC0DC2F6C
:10237000DC70C1F010926238D0E08091623888231E
:1023800019F0B8018C2F9EDFF0920A38C830C1F5E1
:10239000B80188E0E1DB8D2FDF91CF911F910F9184
:1023A000FF90089591E090936238EC2FEF70F0E089
:1023B000E35FF74C82A52FEF280F263948F480936E
:1023C0000A381092633880911D3880937338D5CFC6
:1023D00090936338873980F28759990B66E070E0F3
:1023E000C3D380936138C9CF803841F410926238EA
:1023F00080E00E942A0781E080935C38D1E0BDCF65
:10240000C13061F480916238811119C0B80181E056
:10241000DF91CF911F910F91FF909ECBC33019F4A4
:10242000B80183E0F5CFC33C51F0C63C51F40E94A3
:102430005C0770E060E083E79CE00E949309D0E0D5
:10244000AACFC73B09F0A7CF70E060E085E499E030
:102450000E94F907F4CF1F921FB61F9211242F93E9
:102460003F938F939F93AF93BF93EF93FF9381E03D
:1024700080930B0680919C38882331F1E0919B3842
:10248000809110069091110624E0880F991F2A95DB
:10249000E1F7F0E0EE0FFF1FDF01A956B74C8D9377
:1024A0009C93ED56F74C208131812817390710F4A1
:1024B0002F5F3F4F8217930710F42150310920837B
:1024C000318381E080939D3881E080939C38FF9137
:1024D000EF91BF91AF919F918F913F912F911F905D
:1024E0001FBE1F9018958F9381E0809353018093B6
:1024F00077388F9118958F931D9A81E08093763865
:102500008F911895F89480914000877F80934000C8
:1025100088EDA89584BF90910001907F9093000171
:1025200021E030E084BF2093610083E084B98EE035
:1025300088B988E08093100480931104809312047A
:10254000809313048093140499E09093150480936E
:10255000160480931704809332048093330480938D
:102560003404809335048093500487E38093010AF8
:1025700091E09093000A2FEF30E02093360A3093D9
:10258000370A80911504816080931504909352015D
:10259000809151018111FCCF81E4809350010E9410
:1025A0000F03789481E00E94FB0270E060E08FEC02
:1025B00099E00E94F90710925C380E945C070E9423
:1025C00027038111C3C08DE098E380936E38909308
:1025D0006F3882E00E94FB02F89490E080E008D31C
:1025E000853A79F400916E3810916F38C1E0D0E0EF
:1025F000CE01FED2F80181938F012196CF32D10511
:10260000B9F7789480911B3881110E94F90370E02A
:1026100060E08FE098E00E94F90761E070E083E7F6
:102620009CE00E94F907CC24C394D12C5CEF252EAA
:1026300053E0352E68EE462E63E0562E73E7872E64
:102640007CE0972EE3E86E2EE0E07E2E0E946E087E
:1026500080917A3890917B38009751F0609178386A
:10266000709179380E94930910927A3810927B38D1
:10267000809174388823D9F180E00E942A07F1E024
:10268000F0935201809151018111FCCF29E52093F3
:102690005001809100068E7F809300060E942703E0
:1026A0008111FCCF0E94F10280911504816080931A
:1026B000150410929D3810927738109276388091D8
:1026C0007438811176C0E2E0E0930C3880911504F3
:1026D000887F809315040E940F03F1E0F09352016C
:1026E000809151018111FCCF81E480935001AADBDC
:1026F00010925C38809122388823A1F080915E3856
:10270000882381F02091723890915F38291380C01E
:10271000822F0E942A0710925E38809160388111C2
:1027200080930B3880918D3890918E38E9E0853F09
:102730009E0709F091C08091363881FF04C08091D6
:1027400072380E94F7060E94300380CFC0E08C2FC1
:102750000E942A0783E190E07FDB8C2F86950E9400
:102760002A0783E190E078DB0E9427038823F1F0B9
:10277000CF5FC03461F760918F3880913038681B2B
:1027800081E00E94FB040E943905C6E98C2F0E945B
:102790002A0784E090E060DBC150C1F714CF8C2F92
:1027A0000E942A078DE090E057DBC150C111F7CF9E
:1027B0000ACF80919E38882331F180915000897F23
:1027C000826080935000809150008160809350001F
:1027D0008895809150008E7F80935000809176384C
:1027E00081111092743880919D38882329F081E0FE
:1027F000809392380E945D0580917738882309F490
:102800005ECF7BDA5CCF80915000897F8460D9CF26
:1028100060915D38291770F4892F821B861740F06C
:1028200083D1820F0E942A078AE090E015DB7ACFDD
:1028300081E0F7CF8EE1689FA0011124609160389C
:10284000691B70E0CA0190D1EB0121968FEF820FD6
:102850000E942A07CE01EACFF4E08E3D9F0749F59A
:10286000CCE7D0E0FE0184918053803188F424DBF2
:102870008CE291E0F1DA21966C167D0699F7809250
:102880007A3890927B381092783810927938DECE70
:1028900000E010E0802F80720E942A0780E190E023
:1028A000DBDA1F5F005E1931A9F78AE992E0D4DA1A
:1028B000DFCFFFE08E3B9F0799F021E18236920740
:1028C00029F0E1E18A3A9E0709F0E2C020916338DD
:1028D000213009F0DDC020916238222309F4D8C0EC
:1028E000C0916138EC2FF0E0E35FF74C878980936B
:1028F0007338C33009F45DC0A8F4C23009F43AC09B
:10290000D58D86E90E942A07C11130C0DA3250F510
:10291000C1010197F1F780E00E942A078D2F90E016
:102920009BDA94CEC53009F091CEC0912C38CC0FF3
:10293000C73908F0C6E9D4E08C2F0E942A0785E049
:1029400090E08ADA80912C380E942A0781E490E096
:1029500083DAD15089F780ED92E07EDA80E00E9440
:102960002A0774CE81E090E077DAD5CF8D2F869557
:1029700090E0FACFD0910A38C0E081E0CC2319F082
:10298000C53019F485E00E9494078D2F0E942A0714
:1029900081E290E061DA80E00E942A0782E490E020
:1029A0005BDACF5FCA3049F780911D388093733866
:1029B0004DCE0E943D038F73082F10E00E943D030F
:1029C00067E0B2D0760102C0EE0CFF1C9A95E2F7E8
:1029D0000E943D0365E0A8D0E60102C0CC0FDD1FD8
:1029E0009A95E2F7CE0DDF1D0E943D0390E0BE01F7
:1029F000BBD0C80FD91FC739D10524F0F6E9CF2FB6
:102A000020E0D22F8C2F0E942A07C80125DA7E01F0
:102A100033E0F594E7943A95E1F7E11002C0EE2433
:102A2000E394F12CC80118DA5E01AE18BF08E50185
:102A3000B7FE04C080E0C82FE0E0DE2F8C2F0E949C
:102A40002A070E943D03837039F4C80105DACE01DC
:102A5000959587950E942A07F2E0AF16B10414F706
:102A60000E943D036DE060D0860102C0000F111F7F
:102A70009A95E2F70E943D03E801219790E0C82370
:102A8000D923C00FD11F80E00E942A07CE0148CF72
:102A90002CE08C309207B9F488EE93E0DDD9809178
:102AA0009138C5E06C2F40D034DA809191386C2F8A
:102AB0003BD0892F880F2DDA809118388111DFCE15
:102AC00088EE93E02DCFE9E0833A9E0721F48091D0
:102AD0008F381FDAF5CFFCE088339F07C1F480916F
:102AE00075388111B3CD80910A380E942A0784E697
:102AF00090E0B2D980E00E942A0720912D38249DD1
:102B0000C001259D900D11248456910909CF8D5B3C
:102B1000994009F018CE80E016DA81E014DA80E0FE
:102B200012DA80ED97E0FCCE991B79E004C0991F82
:102B3000961708F0961B881F7A95C9F78095089517
:102B4000AA1BBB1B51E107C0AA1FBB1FA617B707D3
:102B500010F0A61BB70B881F991F5A95A9F78095EF
:102B60009095BC01CD01089597FB072E16F40094B3
:102B700006D077FD08D0E4DF07FC05D03EF4909541
:102B800081959F4F0895709561957F4F0895A1E2BB
:102B90001A2EAA1BBB1BFD010DC0AA1FBB1FEE1FD7
:102BA000FF1FA217B307E407F50720F0A21BB30B22
:102BB000E40BF50B661F771F881F991F1A9469F79E
:102BC00060957095809590959B01AC01BD01CF01FA
:102BD0000895A29FB001B39FC001A39F700D811DF6
:102BE0001124911DB29F700D811D1124911D089516
:102BF00003D0808199270895FC01E050FC4E089590
:102C0000262FFADF0080021611F004D001970197F9
:102C10000895262FAF93BF93E0E0F0E1328131FDBC
:102C2000FDCFDC01A050BC4E2C932DE924BF23E046
:0E2C300020830196BF91AF910895F894FFCFD5
:102C3E000F3812381538B701E00100AA02B50102AB
:102C4E00B002B50102B602B50102BC02B50102C264
:0E2C5E0002B50102C802B50102CE02B50102A4
:102C6C00060B18010101000478014B1E0200010142
:102C7C0014197878640107050000004B000001006E
:102C8C00000001040000000000002943320207325A
:0C2C9C000000182720000000781E98009F
:00000001FF
